:100000000C945A06189518951895189518951895E2
:100010001895189518951895189518951895189578
:1000200018951895189518950C94290518951895F4
:100030001895189518951895189518951895189558
:100040001895189518951895189518951895189548
:10005000189518951895189500040E15150E04049A
:10006000001010101E11111E00080C1E1F1E0C087F
:100070000002060F1F0F06024180429281458283D3
:1000800084854B864D484F87504354880058898A51
:100090008B8C8D8E018FACADEE01ED02EB03DE0497
:1000A000DD05DB06BE07BD08BB097D00E70AD70BEF
:1000B000B70C770D7E0F7B0EFFFF000000000000E5
:1000C00000000000000000000000CFC0D0C0CCC580
:1000D000D2D0DB00D2C5CCCFC5D0C0D2D3D0C000E7
:1000E000C2D0C5CCDF00D1CACED0CED1D2DC00C4C4
:1000F000C0C2CBC5CDC8C500D3C7C5CB20C2CFD0E9
:10010000DBD1CAC000D4CED0CCC000C2DBD2C0CBC1
:10011000CAC8C2C0D2C5CBDC00D1D7C5D2D7C8CAE5
:1001200020C8C7C4C5CBC8C900CED5CBC0C6C4C5BE
:10013000CDC8C50032D1D22EC2CFD0DBD1CAC000CB
:10014000CCC5C6C4D320D6C8CACBC0CCC800C2CF89
:10015000D0DBD1CA00C7C0C3D0D3C7CAC000D1CC7E
:10016000DBCAC0CDC8C500D0C0C7CCDBCAC0CDC8B3
:10017000C500D1D2CECF00CDC0CBC0C4CAC000C054
:10018000C2D2CECCC0D200CED1D2C0CDCEC2CAC097
:1001900000C0C2C0D0C8C9CDDBC920D1D2CECF21CA
:1001A00000C7C0C4C0CDCDC0DF20D2C5CCCFC5D024
:1001B000C0D2D3D0C00020203120202020322020E7
:1001C00020203320202020342020002031363020F1
:1001D000203136352020313730202031373520008E
:1001E000D2C5CAD3D9C0DF20D2C5CCCFC5D0C0D2EA
:1001F000D3D0C000203130302020313035202031A4
:10020000313020203131352000D1D7C5D2D7C8CAEE
:1002100000C3CED2CEC2CE2020202020202020C756
:10022000C0C4C0CDCE00303030303033202020204C
:100230002020202039393939393900B605BA053D31
:1002400006BA005102BA00BA00FA05C0050000CA99
:10025000004102D1026102BA0000004E060000D443
:1002600000410221037102510200004E060000E02D
:1002700000410271038102610200004E060000E6A7
:10028000004102E1029102710200004E060000EFFF
:10029000004102F102A102810200004E060000F8B6
:1002A0000041020103B102910200004E0600000568
:1002B000014102B103C102A10200004E0600000B81
:1002C0000141021103BA00B10200004E06000019FC
:1002D000015102BA00BA00BA00000000000000009C
:1002E000008102BA00BA00BA00000000000000005D
:1002F000009102BA00BA00BA00000000000000003D
:1003000000A102BA00BA00BA00000000000000001C
:1003100000C102BA00BA00BA0000000000000000EC
:10032000006102BA003103BA000000000000002999
:10033000016102BA00410321030000000000003403
:10034000016102BA005103310300000000000040C7
:10035000016102BA00610341030000000000004E89
:10036000016102BA00BA005103000000000000550C
:10037000017102BA008103BA000000000000005EB3
:10038000017102BA009103710300000000000067D0
:10039000017102BA00A10381030000000000004EB9
:1003A000017102BA00BA009103000000000000557C
:1003B00001B102BA00BA00BA00000000000000005B
:0103C000003C
:1003C2000AB30F700ABB0BB30F700BBB0895DA9A16
:1003D2001BB31F70007F102B1BBB0000000000002E
:1003E2000000000000000000000000000000DA9899
:1003F20000000000000000000000000000000000FB
:100402000000000008958A93802F0AB3006F0ABB90
:1004120005D08295807F02D089910895082FD7CF89
:10042200DB981AB3106F1ABBD2DF02C0DB98EBDF86
:10043200C7CFDB9AABD0FBCFD29AD39A0DD00CD0D8
:100442000BD000E2EDDF0BE21BD006E019D00CE08E
:1004520017D008E510E002C000E3E2CF0E94740664
:10046200C80100E40DD0B4E0A8E0FC010591CF0181
:10047200E0DFAA95D1F7BA95B9F7E4E00C947906D2
:10048200D5CF00E020E20FD0208303950035D8F3CA
:100492000FC040E203C007D040830395212F1A9575
:1004A2002223C9F7F5CFF0E0E02FEC55FF4F089576
:1004B200E4EFF0E004E1028304E0038301E000835F
:1004C20008950091F400002351F00A9551F00A9525
:1004D20009F44AC00A9561F00A95D9F04EC0ACDF22
:1004E200D0DF00E00093F6000093F70003E00BC0BA
:1004F20048D009F445C0E091F700F0E0E056FF4F24
:100502000081BEDF04E00093F50002E00093F400F6
:10051200089537D0A9F408954091F70050E004E11E
:1005220010E00E946C06020F151FF801EC55FF4FF8
:1005320000812CD07EDFE4EFF0E00281039502839C
:100542002091F600243140F300E00093F600E4EF3E
:10055200F0E0038103950383043010F000E003838D
:1005620003E0018302E0ABCF21E030E010E004E0E1
:100572000E9468050091F500C9CF00E00093F400E5
:10058200089504E00E946F0500230895003C28F0BE
:10059200F0E0E02FE854F0400491089500E020E0FC
:1005A200F0E0E02FE850FF4F208303950530C0F3C1
:1005B200089510E0E8EFF0E0E00FF11F0081023053
:1005C20019F4108301E0089500E0089530E0E8EFA7
:1005D200F0E0E00FF31F0081002309F41083089577
:1005E20020E030E0E8EFF0E0E20FF31F008102309C
:1005F20011F4308304C0013011F402E0008323952A
:10060200253080F308950091FD00002381F1EDEF84
:10061200F0E001810E7F01830FEF10EF14BB0000A9
:100622000000000000000000000000000000989B95
:100632000FE7999B0F7B9A9B0F7D9B9B0F7E1FE081
:1006420014BB0000000000000000000000000000D9
:1006520000009C9B077F9D9B0B7F9E9B0D7F9F9B1A
:100662000E7F0F3F19F011811160118303830895EA
:10067200BA93AA93C8DFADEFB0E0009100011091E8
:10068200FD00112369F01A9579F01A95B1F01A95C7
:1006920039F11A9529F11A9599F11A95C1F142C0C9
:1006A2000FEF0093FF0039C011961C9110FF3AC062
:1006B2000093FF003FD002E033C037D099F111968A
:1006C2000C91119700FF29C00091FF0010910001C9
:1006D200011719F535D02CED35E02ED003E020C0FE
:1006E20011961C91119710FF1AC01091FF0010175C
:1006F200A1F41BD0B9F024D02DE71DD004E010C026
:1007020011960C9100FD0EC015D006E009C00DD067
:1007120049F011960C9100FD02C001E001C005E014
:100722000093FD00A991B991089500E00E946F0520
:100732000023089524E130E010E000E00C94680505
:1007420048E950E021E031E013968D010E94C9038F
:10075200002321F011E000E00E94E70208950091D9
:100762000101089500E00E94C5030E943C057894AF
:100772000E94CF02A8950E9449050E9462020E942F
:100782009E050E94F102F6CFA895086101BD089569
:10079200BD01FA0101C0329644914F3F51F0D80198
:1007A2005C914517C1F731960491F901008301E08C
:1007B20001C000E0DB01089511D019F00AD04DD03C
:1007C20013D0A991B991089509D011F002D00CD09B
:1007D200F8CFE2E0F1E0008311830895BA93AA937F
:1007E20030E00A3B1307089580D0ACD03A960591C9
:1007F200149100C0202F212B11F0F80109950895C2
:10080200BA93AA9300E00E94DA02002321F10E9427
:10081200B003102F1A5039F01A9539F01A9571F069
:100822001A9541F011C08ED002C08CD0329687D07A
:10083200C3DF0FC0E3D086D0349603C0EBD082D0A2
:1008420036967DD0C1DF05C030F47CD0389677D0A3
:10085200D1DF01E001C000E0B4CFBD01A2E0B1E010
:1008620001E000930801009309010D911C91119779
:10087200FD0102831383ED91F12F119704C01296AB
:10088200ED93FC9313973696B3D01496ED91FC91A9
:10089200159710E0EA3BF10791F7FD014281538180
:1008A200FA01A5D030E004C0A1D0068103950683E9
:1008B200048115810A3B1307B9F70681023098F0CB
:1008C2004483558304C02781239527838FD00481D5
:1008D200158130E00A3B130731F02D913C911197BD
:1008E2000217130781F7DB0108950E94420202D02A
:1008F2003AD09EC00E94740625D01197859194919A
:10090200FD018483958310E08A3B9107A9F0FC01E5
:100912003E9615D01CD0202F14E1101B012F0695F6
:1009220020FB16F40E5F01C00395FC013E96259153
:1009320034910A950E948A05E4E00C9479060591A7
:1009420014910895A2E0B1E0ED91FC91089520E0A8
:1009520001C0239530E0F801E20FF31F34913323F5
:10096200C1F7022F08950E947406A2E0B1E05CD0A4
:10097200C0F1FD01028113810483158317811430B4
:1009820098F0012F20E002C0035023950130E4F7D4
:1009920006C028D02CD0092F9A950023D1F793E0D6
:1009A200022F2A950230B8F782E093E001C08395C6
:1009B200092F9A950023A9F015D03E9625913491DE
:1009C20004E1809F0DEE000D0E948A05FD010AD010
:1009D200349625913491FD01248335832A3B30409E
:1009E20031F7AACF0481F581E02F0895F8013496FA
:1009F20005911491FD01048315830895E2E0F1E06D
:100A02000681023030F01781101718F4012F039578
:100A12000783089509D038F000910901023018F0D7
:100A22000A95009309010895009108010230089582
:100A3200FBDF68F00091090101C003500130ECF7BF
:100A420012E00D5F24E1029F002D0E9487050895A8
:100A5200FA93EA931A930A931FB70CB706500CBF86
:100A6200EDE0F1E00081016000831FBF099119915F
:100A7200E991F991189500E000930D0102BF09B7C1
:100A8200026009BF0AEF0CBF03B7036003BF0895FA
:100A9200EDE0F1E0008100FF19C00E7F0083EEE07F
:100AA200F1E010C0008101FF0CC0018112810150F0
:100AB2001040018312830181012B19F40081086027
:100AC2000083359611E0EB38F10760F30895612F4A
:100AD2000FD06260608321833283089509D0008140
:100AE20003FF04C0077F008301E0089500E008953A
:100AF200402F50E005E010E00E946C06EEE0F1E0CD
:100B0200E00FF11F089514E100E071C011D01083CD
:100B1200089540E004C00CD050834395039550E003
:100B2200F901E40FF51F54915523A9F70C945902CA
:100B3200F0E0E02FEC55FF4F089500918D01033056
:100B420098F41091F400112379F0002311F00E941F
:100B5200390300918D0112E0019FF001E55CFD4F28
:100B62000591F491E02F0995089501E412E00C94A7
:100B7200DD030E940104002309F40DD00895EBE87F
:100B8200F1E000E0008301830FEF048301E00283C0
:100B920000E00383089500910C0110918F01011769
:100BA20029F100938F01002349F00A9561F00A951B
:100BB20071F00A9589F00A95A1F00895A4DF22E761
:100BC20031E008E008C09FDF27E731E003C09BDF88
:100BD2002FE731E007E046C096DF27E831E006E084
:100BE200FACF91DF21E931E003E03CD008950C9483
:100BF2004A020E94B003002339F00A9541F00A9597
:100C020091F00A95D1F0089526D000E009C023D0D2
:100C120021EA31E004E122D02BEC31E01DD002E0E8
:100C220000938E01089517D020EE31E005E116D031
:100C320024EF31E011D003E0F3CF0DD029E032E010
:100C42000BE110D021E132E008E20CD026E232E0E2
:100C520003D004E0E5CF07C00CE304C003D026EBC9
:100C620031E008E256CF14E104E1C1DF14E108E209
:100C7200BEDF14E10CE3BBCF0E940104002361F448
:100C8200EAE0F1E02081318100E02030300721F0FC
:100C9200E0910A01F32F0995089500E0EAE0F1E0FE
:100CA2000083018302E000938D010895000088957E
:100CB200FECF0FE90DBF00E00EBFC0E8D0E00E94FA
:100CC2008206002311F00E9492060E94B3030E9442
:100CD20057060C945706149F102D059F100D049F64
:100CE200002D110D0895BA93AA939A938A930895A9
:100CF200BB81AA8199818881F0E0EC0FFD1FEF0191
:100D0200089501E0089520E006D0E9F708952591BD
:100D120002D0E9F708952D9301501040202F212B86
:100D2200089588E59DE0FC0105911491FC0132963D
:100D3200A591B491FC01349625913491422F432B15
:100D420019F0F901E4DF01C0DEDF06961DE084360A
:100D5200910748F30895EC00A40000000400A000ED
:060D6200640D80C094D472
:00000001FF
:00000001FF
